:020000040800F2
:1000000008070020592900089D2700089F2700089D
:10001000A1270008A3270008A5270008000000006A
:10002000000000000000000000000000A7270008FA
:10003000A927000800000000AB270008AD27000832
:10004000692900086D290008712900087529000830
:10005000792900087D2900088129000885290008E0
:10006000892900088D290008912900089529000890
:1000700099290008B52700089D290008A129000832
:10008000A5290008A9290008AD29000800000000E2
:10009000000000000000000000000000B12900087E
:1000A000B5290008B9290008BD290008C1290008A0
:1000B000C5290008C9290008CD290008D129000850
:1000C000D5290008D9290008DD290008E129000800
:1000D000E5290008E9290008ED290008F1290008B0
:1000E000F5290008F9290008FD2900080000000092
:1000F0000000000000000000000000000000000000
:1001000000000000000000000000000000000000EF
:100110000000000000000000BF270008012A0008BE
:100120002DE9FC410400002C01D10120E1E12078FF
:10013000C0076BD5DFF82C05016811F00C0104290C
:1001400007D0016811F00C0108290CD10068C00328
:1001500009D5DFF80C050068800357D560680028D2
:1001600054D10120C5E16068B0F5803F06D1DFF8C9
:10017000F004016851F48031016026E060680028D5
:100180000AD1DFF8DC04016831F4803101600168D4
:1001900031F48021016018E06068B0F5A02F0AD129
:1001A000DFF8BC04016851F480210160016851F45A
:1001B0008031016009E0DFF8A804016831F4803182
:1001C0000160016831F480210160606800280ED070
:1001D00000F068FA0500DFF888040068800315D491
:1001E00000F060FA401B6528F5D3032081E100F0A0
:1001F00059FA0500DFF868040068800306D500F0AE
:1002000051FA401B6528F5D3032072E1207880075E
:100210001ED5DFF85004016811F00C0F07D00168FB
:1002200011F00C0108292CD10068C00329D4DFF893
:1002300030040168890704D52169012901D0012012
:1002400057E1016831F0F801626951EAC2010160C9
:100250002078000749D5A069002871D00120DFF877
:100260001C14086000F01EFA0500DFF80C0400689A
:10027000800737D400F016FA401B0328F5D303207B
:1002800037E1206900281AD00120DFF8F413086054
:1002900000F008FA0500DFF8C8030168890706D4F2
:1002A00000F000FA401B0328F5D3032021E1016888
:1002B00031F0F801626951EAC2010160C8E700202B
:1002C000DFF8BC13086000F0EDF90500DFF89003DB
:1002D00000688007BCD500F0E5F9401B0328F5D382
:1002E000032006E1012000F0A7F92078400740F143
:1002F00096800026DFF88C532868C00009D428684F
:1003000050F080502860286810F0805000900098CD
:100310000126DFF874733868C00524D4386850F4B7
:100320008070386000F0BEF980463868C0051AD485
:1003300000F0B8F9B0EB08006528F6D30320D8E048
:100340000020DFF83813086000F0ACF90500DFF892
:10035000280300688007C8D500F0A4F9401B0328D3
:10036000F5D30320C5E0E068012806D1DFF81C03BF
:10037000016851F00101016025E0E06800280AD120
:10038000DFF808030168490849000160016831F09D
:100390000401016017E0E06805280AD1DFF8EC02EB
:1003A000016851F004010160016851F00101016030
:1003B00009E0DFF8D80201684908490001600168D6
:1003C00031F004010160E068002810D000F06AF903
:1003D0000700DFF8B8020068800719D400F062F95E
:1003E000C01B41F289318842F3D3032081E000F041
:1003F00059F90700DFF894020068800708D500F07B
:1004000051F9C01B41F289318842F3D3032070E0D7
:10041000F6B2012E03D1286830F080502860E069E0
:10042000002865D0DFF83C62306810F00C00082826
:100430004CD0E069022836D1DFF8547200203860D1
:1004400000F030F98046DFF818522868800107D59F
:1004500000F028F9B0EB08000328F4D3032048E0AB
:10046000206AB0F5803F07D1DFF808120A68120948
:100470001201A06802430A60316831F47411206AE5
:100480000143606A014331600120386000F00AF9DD
:100490000400286880012BD400F004F9001B032815
:1004A000F7D3032025E00020DFF8E411086000F016
:1004B000F9F80400DFF8A8010068800118D500F001
:1004C000F1F8001B0328F5D3032012E0E0690128AE
:1004D00001D101200DE0306810F48031226A914290
:1004E00004D110F47010616A884201D0012000E04C
:1004F0000020BDE8F68170B50400002C01D1012078
:1005000073E02078800716D52078400704D5554839
:10051000016851F4E06101602078000704D551487A
:10052000016851F4605101604E490A6832F0F002EE
:10053000A06802430A602078C00731D560680128AE
:1005400005D147480068800310D401204DE0606861
:10055000022805D142480068800107D4012044E008
:100560003F480068800701D401203EE03D4E3168DD
:100570008908890060680143316000F093F8050044
:10058000306810F00C006168B0EB810F08D000F00B
:1005900089F8401B41F289318842F1D3032024E0DD
:1005A0002078400706D52F490A6832F4E062E068F7
:1005B00002430A602078000707D52A48016831F411
:1005C0006051226951EAC201016000F00FF831491F
:1005D000244A1268C2F30312895CC84023490860A8
:1005E0002348006800F064F8002070BD002000205F
:1005F0000020002000201B48016811F00C00042896
:1006000002D0082802D015E0174814E02248C1F3B0
:100610008342805CC9030AD52049164A126812F049
:100620000F028A5C10494843B0FBF2F001E01C491C
:10063000484300E00C48704781B00C490968C9087C
:100640004FF47A72B1FBF2F14843009000BF00987A
:10065000411E00910028F9D101B070470000000050
:10066000001002400410024000127A000C0000202A
:10067000080000202C100240241002408004424256
:10068000000042421C100240007000402010024056
:10069000600042424829000828290008382900083B
:1006A00000093D0001480068704700BFFC020020BF
:1006B00010B504004FF47A700D490978B0FBF1F0E1
:1006C0000C490968B1FBF0F000F099F8002801D05E
:1006D00001200CE0102C09D2002221005FF0FF3035
:1006E00000F077F804480460002000E0012010BD0D
:1006F000120000200C0000200800002010F007006D
:10070000414B1A684FF6FF010A4052EA00223F4867
:1007100002431A6070473C480068C0F302207047EB
:10072000010049B2002908D4012210F01F018A40BB
:10073000374940B2400941F820207047020052B2C8
:10074000002A04D40901334A40B2115407E00901D8
:10075000314A40B210F00F00104400F8041C7047FA
:1007600010B410F00700D0F10703052B01D30423C8
:1007700001E0D0F10703041D072C01D2002000E0A6
:10078000C01E012414FA03F35B1E1940814014FAC1
:1007900000F0401E1040084310BC704780B5411E59
:1007A000B1F1807F01D301200EE0401E1B4908609B
:1007B0000F215FF0FF30FFF7C1FF002018490860EC
:1007C000072018490860002002BD80B5FFF796FF9A
:1007D00001BD70B504000D0016000020FFF79BFF5F
:1007E00032002900FFF7BCFF0100200040B2FFF7F4
:1007F000A5FF70BD80B540B2FFF792FF01BD80B587
:10080000FFF7CCFF02BD00000CED00E00000FA0590
:1008100000E100E000E400E018ED00E014E000E09A
:1008200018E000E010E000E010B50400002C01D159
:1008300001202FE094F83D00002805D1002084F825
:100840003C00200000F01FFB022084F83D00211D29
:10085000206800F0FAF9012084F84600012084F8AD
:100860003E00012084F83F00012084F84000012070
:1008700084F84100012084F84200012084F84300FC
:10088000012084F84400012084F84500012084F808
:100890003D00002010BD90F83D10012901D001203D
:1008A0002EE0022180F83D100168DFF858209142C7
:1008B00012D00168B1F1804F0ED00168DFF84820F6
:1008C000914209D00168DFF84420914204D00168C8
:1008D000DFF83C2091420CD10168896811F00701D2
:1008E00006290CD00168096851F001010068016017
:1008F00005E00168096851F001010068016000200D
:1009000070470000002C0140000400400008004037
:100910000040014038B504000D00002C01D1012039
:100920005CE094F83D00002805D1002084F83C00EC
:10093000200000F07CFA022084F83D0020688168E5
:10094000DFF88001014020688160211D206800F0EF
:100950007CF920688168206882692068036A2868B9
:100960000143DFF864010240A8680243A86952EA23
:100970000022DFF858010240DFF854010240E86825
:100980000243E86952EA0022286952EA0012286A02
:1009900052EA003233F0220368680343686953EA7D
:1009A0000013206881602068826120680362012052
:1009B00084F84600012084F83E00C0B2012084F88B
:1009C0003F00C0B2012084F84200C0B2012084F888
:1009D0004300C0B2012084F83D00002032BD000079
:1009E00038B5040094F83E0094F83F2094F8423063
:1009F00094F84350002910D1C0B2012802D1DBB2D3
:100A0000012B01D001205BE0022084F83E00C0B23F
:100A1000022084F84200C0B230E0042910D1D2B2E2
:100A2000012A02D1EDB2012D01D0012048E00220BF
:100A300084F83F00C0B2022084F84300C0B21DE039
:100A4000C0B2012808D1D2B2012A05D1DBB2012BF4
:100A500002D1EDB2012D01D0012031E0022084F855
:100A60003E00C0B2022084F83F00C0B2022084F8E9
:100A70004200C0B2022084F84300C0B2002902D074
:100A8000042906D00BE001220021206800F036F98D
:100A90000FE001220421206800F030F909E0012272
:100AA0000021206800F02AF901220421206800F0CA
:100AB00025F92068006850F00100216808600020D6
:100AC00032BD0000F8BFFFFFFCFCFFFFF3F3FFFFA8
:100AD0000F0FFFFF10B504002068006980071AD5CA
:100AE0002068C068800716D57FF002002168086181
:100AF000012020772068806910F0030F03D02000C8
:100B000000F0ECF905E0200000F0E9F9200000F029
:100B1000E7F9002020772068006940071AD520688F
:100B2000C068400716D57FF00400216808610220E4
:100B300020772068806910F4407F03D0200000F007
:100B4000CDF905E0200000F0CAF9200000F0C8F956
:100B5000002020772068006900071AD52068C06847
:100B6000000716D57FF0080021680861042020776F
:100B70002068C06910F0030F03D0200000F0AEF928
:100B800005E0200000F0ABF9200000F0A9F90020FA
:100B9000207720680069C0061AD52068C068C006A2
:100BA00016D57FF0100021680861082020772068A2
:100BB000C06910F4407F03D0200000F08FF905E0F9
:100BC000200000F08CF9200000F08AF90020207746
:100BD00020680069C0070AD52068C068C00706D52C
:100BE0007FF0010021680861200000F07AF9206898
:100BF000006900060AD52068C068000606D57FF0A7
:100C0000800021680861200000F06CF9206800690C
:100C100040060AD52068C068400606D57FF040002F
:100C200021680861200000F05EF9206800698006F4
:100C30000AD52068C068800606D57FF020002168AC
:100C40000861200000F050F910BD10B40468DFF80E
:100C5000943098420AD0B0F1804F07D0DFF8882056
:100C6000904203D0DFF88420904203D134F0700426
:100C70004A681443984216D0B0F1804F13D0DFF881
:100C8000682090420FD0DFF8642090420BD0DFF84C
:100C90006020904207D0DFF85C20904203D0DFF85C
:100CA0005820904203D134F44074CA68144334F09D
:100CB00080044A69144304608A68C2620A688262D6
:100CC000984208D00A4A904205D00A4A904202D07F
:100CD000094A904201D1096901630121416110BCB7
:100CE00070470000002C0140000400400008004054
:100CF00000400140004401400048014010B401247C
:100D000011F01F0314FA03F3046A34EA03030362C5
:100D1000036A11F01F0112FA01F11943016210BCBC
:100D200070470EE002684368024408305FEAC37C03
:100D300044BF4B445B1E52F804CB43F804CB091F5D
:100D4000F9D150F8041B0029ECD1704781B05A4802
:100D5000016851F001010160006810F0010000908D
:100D600000985648016851F080510160006810F009
:100D70008050009000985249086830F0E06050F0D0
:100D80000070086001B0704730B585B004001022D3
:100D9000002101A800F0A9F820684A49884244D1FE
:100DA0004648016851F000510160006810F00050A1
:100DB000009000984048016851F00401016000680B
:100DC00010F0040000900098102001900320029081
:100DD00001A93D4800F094F83C4D3D4828601020A2
:100DE00068600020A8608020E8604FF4807028616F
:100DF0004FF4806068612020A8610020E86128002D
:100E000000F076F9002801D000F04AFC3148016872
:100E100051F400610160A5606C620022002136205F
:100E2000FFF7D7FC3620FFF7E5FC05B030BD18B55D
:100E300085B004001022002101A800F056F82068B7
:100E4000B0F1804F1DD11D48016851F001010160D2
:100E5000006810F00100009000981748016851F0F8
:100E600004010160006810F0040000900098032065
:100E70000190002002900120039001A9124800F087
:100E80003FF806B010BD80B500681349884211D103
:100E90000A48016851F010010160006810F010006C
:100EA00000900098002200213620FFF792FC3620A7
:100EB000FFF7A0FC01BD0000181002401C1002400A
:100EC000040001400074004000080140A40200201A
:100ED000300002401C000140001000407047704785
:100EE0007047704770477047704710B5044610460A
:100EF0000A460146204600F0D5FB204610BD000002
:100F0000F8B502000023002514E0DFF8A40106680C
:100F100036EA040404600CE0DFF898010668A64392
:100F200006604868C003F0D5DFF8840106683443E2
:100F300004605B1C0868D840002800F0B8800126D7
:100F40009E400C683440B442F3D14868002827D052
:100F500001281AD002281DD003282FD0112816D01E
:100F600012281AD0544FB8421AD0544FB84217D052
:100F7000534FB84214D0534FB84211D0524FB842D9
:100F80000ED0524FB8420BD01AE0CD6818E0CD68B1
:100F90002D1D15E0CD68083512E0CD680C350FE049
:100FA0008868002801D1042507E08868012802D15B
:100FB0000825166101E00825566101E00025FFE7DC
:100FC000B4F5807F01D2170000E0171DB4F5807FD3
:100FD00002D25FEA830C03E0B3F1080C5FEA8C0CE9
:100FE0000F26D7F800E016FA0CF03EEA000E15FACC
:100FF0000CFC5CEA0E0CC7F800C04868C00098D52D
:101000003348076857F001070760006810F00100D7
:10101000009000982F4F1800800857F820C013F058
:101020000300C0B2800086403CEA060C2A48824297
:1010300001D100260FE02948824201D101260AE0B1
:101040002748824201D1022605E02648824201D18A
:10105000032600E0042613F00300C0B2800086409F
:1010600056EA0C0C1800800847F820C04868C002F7
:1010700004D51D4806682643066003E01A48066842
:10108000A64306604868800204D5184806682643CF
:10109000066003E015480668A643066048688003BA
:1010A0007FF53AAF034806682643066039E7F1BD8D
:1010B000000401400404014000001110000012105F
:1010C000000021100000221000003110000032103A
:1010D000181002400800014000080140000C0140C7
:1010E0000010014000140140080401400C040140BC
:1010F0000021002801D101202BE00268DFF83C121A
:101100008A181421B2FBF1F189000164DFF8301272
:10111000C163022180F8211001680A686FF30D1283
:1011200041680A4381680A43C1680A4301690A4366
:1011300041690A4381690A43C1690A4301680A6037
:1011400000218163012180F82110002180F8201006
:101150000020704770B50400002594F82000012895
:1011600001D1022037E0012084F8200094F821000A
:1011700001282AD1022084F821000020A0632068E1
:1011800000684008400026683060200000F0E8F861
:10119000E06A002806D02068006850F00E00216840
:1011A00008600BE02068006830F0040021680860E7
:1011B0002068006850F00A00216808602068006814
:1011C00050F001002168086003E0002084F820004E
:1011D00002252800C0B270BD10B5C16B0A68016855
:1011E0000B680424016C8C4022423DD059073BD54A
:1011F00001680968890605D40168096831F00401AD
:101200000268116001684F4A914201D1042123E034
:1012100001684D4A914201D140211DE001684B4ACD
:10122000914202D14FF4806116E00168484A914230
:1012300002D14FF480410FE00168464A914202D149
:101240005FF4802108E00168434A914202D15FF4D3
:10125000800101E05FF08061404A1160C16A0029AD
:101260006AD0C16A884767E00224016C8C40224240
:1012700043D0990741D501680968890608D40168F7
:10128000096831F00A0102681160012180F821101B
:1012900001682C4A914201D1022123E001682A4AC7
:1012A000914201D120211DE00168284A914202D1DA
:1012B0004FF4007116E00168254A914202D14FF4C3
:1012C00000510FE00168234A914202D15FF40031DE
:1012D00008E00168204A914202D15FF4001101E068
:1012E0005FF000711D4A1160002180F82010816AB2
:1012F000002921D0816A88471EE00824016C8C40B7
:10130000224219D0190717D50168096831F00E017A
:10131000026811600122016C8A40C16B4A600121A0
:101320008163012180F82110002180F82010016BD9
:10133000002901D0016B884710BD0000F8FFFDBFF8
:1013400000000240080002401C0002403000024041
:1013500044000240580002406C0002400400024079
:1013600030B40125046CA540C46B656004686360FB
:101370004368102B04D103689A600068C16003E0E1
:10138000036899600068C26030BC704770B50400A3
:10139000B34D0020288029E02888400000F0B6F9ED
:1013A000B04AB14B00F0C4F90022B04B00F096FAFD
:1013B00000F0ACFD00F0ACFD0100AD48006800F0AD
:1013C000DBFD0600200000F043FE310000F0D4FDFC
:1013D00001005FF08A4000F049FE00F0F9FEA549E7
:1013E0002A8821F812002888401C28802888FF2895
:1013F000D2DB70BD7CB500F0FFFE00F04DF800F0D0
:1014000018F900F002F900F07BF800F0D9F800F0CC
:1014100095F8994C2088FFF7B9FF00200090FF2332
:10142000944A0021954800F009FF9548FFF733FAE8
:101430003C219448FFF7D4FA934D4FF400762E6088
:101440000AE02088286004E0286820302080208876
:1014500028602088FFF79AFF28688C490860286870
:10146000218888420CD2208840F20121884201DA8A
:101470002E60EEE728682038208020882860E8E782
:10148000208829688842DCD22088B0F5006FDBDB39
:101490004FF400602860DCE700B58FB028220021FF
:1014A00005A8FFF722FD142200216846FFF71DFD65
:1014B000012005905FF48030069000210791022101
:1014C0000C910D905FF480200E9005A8FEF728FE89
:1014D000002801D000F0E4F80F20009002200190D5
:1014E0000020029000200390002004900021684614
:1014F000FFF701F8002801D000F0D2F80FB000BDCE
:101500001CB5082200216846FFF7EFFC5B4C6048E1
:101510002060200000F07CFE002801D000F0C0F820
:10152000042000900020019000226946200000F075
:1015300042FF002801D000F0B3F813BD18B58BB0FE
:101540002422002102A8FFF7D0FC082200216846CF
:10155000FFF7CBFC4B4C5FF08040206000206060C8
:101560000020A060EF20E060002020610020A0614A
:101570000120029002200390012004900020059099
:10158000002006900220079001200890002009907A
:1015900000200A9002A92000FFF7BCF9002801D022
:1015A00000F07EF8002000900020019069462000A5
:1015B00000F050FF002801D000F072F80CB010BD10
:1015C0001CB5082200216846FFF78FFC2C4C3148DF
:1015D0002060002060600020A060EF20E06000201C
:1015E000A0612000FFF720F9002801D000F058F892
:1015F00020200090002001906946200000F02AFF82
:10160000002801D000F04CF813BD80B522480168D5
:1016100051F001010160006810F001000090009895
:10162000002200210D20FFF7D4F80D20FFF7E2F88B
:1016300001BD81B01948016851F0200101600168C5
:1016400011F0200100910099016851F0040101603E
:10165000006810F004000090009801B0704700008E
:10166000000300205C3FBB4BFB21094000E06F40C2
:10167000040000201400002010000020E8020020D8
:101680005C02002014020020240000400000002022
:101690000074004000100040141002401810024076
:1016A00072B6FEE762F30F2262F31F42401810F099
:1016B000030308D0C91A1FD3DB0748BF00F8012D68
:1016C00028BF20F8022D130030B4144615461039F7
:1016D00028BF20E93C00FAD8490728BF20E90C00C0
:1016E00048BF40F8042D890028BF20F8022D48BFCC
:1016F00000F8012D30BC7047C91818BF00F8012D43
:10170000CB0728BF00F8012D7047000010F0004102
:1017100060B148BF4042B0FA80F29040D21CC2F59E
:10172000846241EA025202EBD0214005704700007A
:1017300030B540F2FF7C1CEA11541DBF1CEA135562
:10174000644565453FE0641981EA030C6FF35F531C
:101750000CF0004C43F48013C90241F0004141EA0F
:10176000505EC5021100A5FB020200284FF00000E8
:10177000EEFB01204FF00001E3FB052118BF42F012
:101780000102401800214941E3FB0E01A4F58064E9
:101790000D0302D292184041494154F1010470DD19
:1017A000450872F1004250F1000051EB0451A1F5DF
:1017B000801102D441EA0C0130BD40F2FF7E4CEAB8
:1017C0000E51002030BD0CEA1355644518BF654525
:1017D00081EA030C0CF0004C41D050EA410E1CBFD2
:1017E00052EA430E02E06146002030BD24422C4400
:1017F0001BD15FEA050EF6D0090302BF01460020A7
:10180000AEF1140EB1FA81F5AEEB050401FA05FE56
:101810000C35C5F1200100FA05F5C8404EEA000E6E
:101820006FF35F5343F480139CE733F00043B3FA44
:1018300083F504BFB2FA82FE75440B3D641BB5F11B
:10184000200E2FBF02FA0EF3AB40C5F1200E22FA94
:101850000EFE38BF43EA0E03AA40641C7CE750EA40
:10186000410E14BF52EA430E6FF000014FF4001511
:1018700015EB430F8EBF194615EB410F9DE7B4D80A
:1018800030BDD4F10104B4F120050FDAC4F1200514
:10189000520828BF42F0010210FA05FE01FA05F5D0
:1018A0007244E2BFE0402843E1400FE0352C9ADC6F
:1018B000C5F1200452EA400220FA05F218BF42F0B6
:1018C000010231FA05F0A1400A43002172F1004201
:1018D00050F1000051EB0C0130BD0000F0B540F2BA
:1018E000FF7581EA030C0CF0004C15EA11541DBF82
:1018F00015EA1357AC42AF42E5E0BC41C1F3130116
:10190000C3F31303801A994143F4801304D2641E75
:101910000018494180185941C90241EA5051B1FBB0
:10192000F3F603FB1611A2FB0675D7EBC020A94105
:1019300002D2761E80185941C90241EA5051B1FBCA
:10194000F3FE03FB1E11A2FB0E75D7EBC020A941CD
:1019500003D2AEF1010E80185941890241EA90513B
:10196000760546EA8E2EB1FBF3F603FB1611A2FBB9
:101970000675D7EB8020A94102D2761E8018594106
:10198000C90241EA50514EEA060EB1FBF3F603FBE1
:101990001611A2FB0675D7EBC020A94102D2761E14
:1019A00080185941C90241EA5051B1FBF3F703FBDA
:1019B0001711A2FB0735D3EBC020A94167F100073F
:1019C0000CBF004247F0010766F3D5274FEA1E31EE
:1019D000B80814F5806412DDBD0775F1004250EBC4
:1019E0000E5051EB045111F5801F5CBF41EA0C0110
:1019F000F0BD4CF07F6141F0E0410020F0BDBD073B
:101A00006D0840EA0E5041F48011D4F10104B4F1A4
:101A100020060ADAC4F120060200E04001FA06F3CB
:101A2000E1401843B24015430EE0342C13DCC6F1FC
:101A3000200445EA40056D0820FA06F2154321FA14
:101A400006F0A1400D43002175F1004250F1000065
:101A500051EB0C01F0BD00205FEA0C01F0BDCFB9E5
:101A600092185B41B3FA83F704BFB2FA82F6BF194A
:101A70000B3FB7F120062FBF02FA06F3BB40C7F1B8
:101A8000200622FA06F638BF3343BA401CB1E419E7
:101A9000641E33E77F4231F00041B1FA81F404BFA4
:101AA000B0FA80F6A4190B3CB4F120062FBF00FA5F
:101AB00006F1A140C4F1200620FA06F638BF3143F2
:101AC000A0403C1B1AE7AC421ABF05EA1357AF42CD
:101AD00012E050EA41061CBF52EA4306BFE750EA53
:101AE0004107304661461CBF41EA0551F0BD52EA4C
:101AF000430C08BFC143F0BD00204FF4001616EBA5
:101B0000410F98BF16EB430F08BF16EB410F24BFE0
:101B1000C14305E016EB430F0CBF61464CEA05518B
:101B2000F0BD00002DE9FC4D04460D461646DFF8D9
:101B30005003DFF8501322462B46FFF7F9FD8B4682
:101B40002BF00041D04AD14B00F0C6FC074658D2DA
:101B5000CF4B0BF0004700223B43594600F0D6FC28
:101B600000F0FCFD070047D0FFF7D0FD0022C94B75
:101B7000FFF7DEFD82468B464FF0A040C649524635
:101B80005B46FFF7D5FD22462B4600F0BFFC04461E
:101B90000D464FF0C040C14952465B46FFF7C8FDB5
:101BA00022462B4600F0B2FC04460D464FF0005092
:101BB000BB4952465B46FFF7BBFD22462B4600F071
:101BC000A5FC04460D460020B64952465B46FFF789
:101BD000AFFD22462B4600F099FC04460D464FF01F
:101BE0000050B14952465B46FFF7A2FD22462B4604
:101BF00000F08CFC04460D4607F0030707EB0608CF
:101C00009CE068004015401C08D1290340F0348155
:101C10004FF0FF306FF00041BDE8FC8D24F0000074
:101C200035F0004108BF002804D1002E00F02581C6
:101C30009E4D22E13846964B0BF000475946002254
:101C40003B4300F063FC4B0043EAD0734200002B9F
:101C500008BF002A17D040F23347A7EB5352352A6A
:101C600004DB00F0000001F000410CE0202A03DD5D
:101C7000203AD140914000E001D1002003E0002A49
:101C8000C4BFD0409040CDE90001DDE9000120F063
:101C9000000231F0004308BF002A47D0DDE90023ED
:101CA00000207C49FFF744FD07468B464FF0A040DB
:101CB00079493A465B46FFF73BFD22462B4600F04A
:101CC00025FC04460D464FF0C04074493A465B4639
:101CD000FFF72EFD22462B4600F018FC04460D4669
:101CE0004FF000506E493A465B46FFF721FD224611
:101CF0002B4600F00BFC04460D46002069493A468D
:101D00005B46FFF715FD22462B4600F0FFFB04461D
:101D10000D464FF0005064493A465B46FFF708FD18
:101D200022462B4600F0F2FB04460D46DDE9000199
:101D300000F014FD00F0030000EB060825F0004160
:101D4000002905D500224FF00043101B63EB010171
:101D500000225FF0795304D54FF00047921A67EBE9
:101D60000303994208F0010A05DABAF1000F7BD0AB
:101D700000244E4D78E022462B4620462946FFF7A8
:101D8000D7FCBAF1000F06460F4631D04848494902
:101D900032463B46FFF7CCFC474A484B00F0B6FBC7
:101DA00032463B46FFF7C4FC454A464B00F0AEFBCB
:101DB00032463B46FFF7BCFC434A444B00F0A6FBCF
:101DC00032463B46FFF7B4FC414A424B00F09EFBD3
:101DD00032463B46FFF7ACFC6FF051023E4B00F041
:101DE00095FB32463B46FFF7A3FC00222F4B37E022
:101DF00032463B4620462946FFF79AFC82468B46F0
:101E00003648374932463B46FFF792FC354A364B57
:101E100000F07CFB32463B46FFF78AFC334A344BEA
:101E200000F074FB32463B46FFF782FC314A324BEE
:101E300000F06CFB32463B46FFF77AFC2F4A304BF2
:101E400000F064FB32463B46FFF772FC2D4A2E4BF6
:101E500000F05CFB52465B46FFF76AFC22462B46CD
:101E600000F054FB04460D465FEA887004D585F007
:101E700000412046BDE8FC8D20462946BDE8FC8D8A
:101E800083C8C96D305FE43F0000A0FFFFFFDF4162
:101E90000000E03F0000303EFB21B9C1B41011C08A
:101EA00026A651BE5C14D3BC9A833BBB0000F03F16
:101EB00009260A1039BA213E3BA861C6F97D92BEB7
:101EC00063AC30909F01FA3EF6FB51166CC156BFD1
:101ED000B10255555555A53FFFFFDFBFB08F2FC34A
:101EE00010D8E53D8F0C73A1E1E55ABE4DADE44F2E
:101EF000E31DC73E3EE3B519A0012ABFFAF0101159
:101F00001111813F425555555555C5BF002209E66F
:101F100001F000428B1AA3F16051B1F5801F0ADB7A
:101F2000B1F17F6F1FD242EAC102C10071F10041DD
:101F300042EB507070470B15C3F10903212B10D2EF
:101F4000890241EA905180020128494141F0004153
:101F500021FA03F0C3F12003994071F1004150418F
:101F60007047100070476FF0000013EB103F5CBF2C
:101F7000000E42EAC0507047FF2212EAD05C1DBF3B
:101F800012EAD153944593422BE09C44D30780EA54
:101F9000010243EA002043EA01211A40A1FB00307C
:101FA000C04238BF00187CF17F010BDBFE294ADA02
:101FB0005B0842EAC15153EA006373F1004C51EBF4
:101FC00010207047D1F1080CDCF120012FDB5B08F9
:101FD00010FA01F10B4320FA0CF073F1004150416B
:101FE000704794451CBF02EAD153934280EA010234
:101FF00002F000421DD0400019D0490017D05BB953
:10200000634514D00902B1FA81F39940BCEB030C8B
:10201000C00140F00040C1E70002B0FA80FC10FAB5
:102020000CF0B3EB0C0CC90141F00041B6E7100015
:10203000704740000AD0490008D010F1807F94BF5B
:1020400011F1807F02E042F0FF407047D0437047BB
:1020500050B1B0FA80F18840C1F19D01C905020676
:1020600072F1004241EB10207047000090EA010F2E
:1020700040F16C8081F00041431A4FF000423EBFB6
:102080005340C01AC918D3095FEAD05C13EB400F64
:1020900034BFB3EB410F40E07CEBD1530CD342EAA9
:1020A000012122D8D1EB402009D3400A28BF5FEAA2
:1020B000500140EBCC507047401A15D04002B0FAA6
:1020C00080F2521C9040400A4FEA3C23B3EB02637B
:1020D00084BF00EB730007E040F400001A16DB0732
:1020E000C2F10102D04018437047182BFCDC31FAD2
:1020F00003F202FA03F3591A38BF42F00102D2EB9D
:1021000040203CBF0018ACF1010C5FEACC5CC2057A
:1021100072F100414CEB5020704713EB400F0FD28F
:10212000C94209D0ACEBD153022B03DB4902172B78
:10213000DDDD70479143401AC042D5D10020704781
:1021400013EB410FD0D36FF000007047421A3CBF31
:10215000801A8918C0F3C752FF2A4FF0004C22D0D2
:10216000C1F3C7534BB3D21AD2F119032EDD4CEA97
:1021700001214CFA03F321EA0303D1404CEA002287
:102180006FF3160052180FD353EAC2534CEA5202AF
:1021900073EB0C0C50EB1220420012F1807F38BF21
:1021A00070476FF31600704753EA026322EA0C028D
:1021B00073EB0C0C50EB12207047490212BF9A428D
:1021C00000EB5120EFE7D2F11703D2D570470000A2
:1021D000C0F3C751D1F19E0108DD020242F0004276
:1021E000CA4002EBE07282EAE07070477FEAE0707A
:1021F00080F000407047000080B50320FEF7E5FA4C
:102200000F20FEF755FAFEF7A1FD002002BD0000E9
:1022100010B50400002C01D101200EE02079002827
:1022200004D1002060712000FEF7AEFD0220207175
:102230000020206101202071002010BD70B5050034
:102240000C001100002D01D1012078E068790128EF
:1022500001D1022073E001206871022028710498E6
:10226000002C22D10FF2B912AE68B2620FF2C11285
:10227000AE68F2620FF2C512AE6832632A68126865
:1022800052F480522E683260002802D0042804D014
:1022900007E0286810F1080226E0286810F10C0217
:1022A00022E0286810F110021EE0254AEE68B262B2
:1022B000244AEE68F262244AEE6832632A681268A1
:1022C00052F080522E683260002802D0042804D0D8
:1022D00007E0286810F1140206E0286810F11802DF
:1022E00002E0286810F11C02002C09D1286800685F
:1022F00050F400502E683060A868FEF72BFF08E00D
:102300002868006850F000502E683060E868FEF7DA
:1023100021FF002169710100C9B200290AD1296891
:102320000968012214F0100412FA04F40C4329681D
:102330000C6003E0296951F004012961C0B270BD4D
:102340002D2800083D2800084728000870B5040023
:10235000206805682068466BA80414D5B00412D51F
:1023600004202071206950F0010020614FF40050DA
:10237000216848632068006830F480502168086054
:10238000200000F006FAA80014D5B00012D50420F1
:102390002071206950F0020020615FF00050216838
:1023A00048632068006830F0805021680860200091
:1023B00000F0F0F970BD70B40023002801D00029AE
:1023C00001D101202AE04479012C01D1022025E02D
:1023D00001244471022404710468256840F6FE76E5
:1023E00012F01004A640B5430C6849680C4312F083
:1023F00010018C40254301680D6001680968C02404
:1024000012F0100214FA02F231EA020201680A60C4
:1024100001210171002141711800C0B270BC7047E8
:1024200010B5446A200000F0B6F90120207110BDFB
:1024300080B5406A00F0B0F901BD000010B5446AF3
:10244000206950F004002061200000F0A6F901206E
:10245000207110BD10B490F83C20012A01D1022057
:1024600030E0012280F83C20022280F83D20026802
:1024700054680268936834F070040A681443026870
:1024800054600268104CA2420FD00268B2F1804F33
:102490000BD002680D4CA24207D002680C4CA2423D
:1024A00003D002680B4CA24205D133F08003496887
:1024B0000B4301688B60012180F83D10002180F8FA
:1024C0003C10002010BC7047002C0140000400406C
:1024D000000800400040014041EA030C50EA4C0C67
:1024E00052EA0C0C4FF4001C09D307D01CEB410F2F
:1024F0009CBF1CEB430F8B4208BF824270471CEB12
:10250000430FFBD8994208BF9042704770B491EADC
:10251000030F4FF0004540F1B7806B40841A71EB18
:10252000030604D26E40001BB141121973414FF4EF
:10253000001C1CEB410F34BF7CEB430683E00C0D09
:10254000A4EB1356362E00F37C80012E45EAC323FC
:1025500041DC43EA525312BFD20292025B082405C7
:1025600045EAC12141EA5051D2EBC020994125D41E
:1025700007D1B0FA80F610FA06F162D000202036BA
:1025800008E0B1FA81F6B140C6F1200220FA02F269
:102590001143B0404FEAF474B4EB465434F00106F2
:1025A0004FEA74040AD8D6F50016760D04F00044FC
:1025B000F04061FA06F25040F1404840C00A40EA5B
:1025C000415021F0004128BF5FEA500550F1000062
:1025D00044EBD12135E0DB0A45EAC121C90AB6F155
:1025E00020050EDD42EA0242120CC5F1200603FA74
:1025F00006F6EB4042EA06056D42984161F10001A2
:102600000DE062FA06F5F240554063FA06FC82EAF4
:102610000C02F3405A406D42904161EB030111F40A
:10262000801F05D1641E620502D06D004041494102
:1026300021F48011430875F1004350F1000041EB93
:10264000045170BC70471CEB410F15D223F00043BE
:1026500052EA43060BD04FEA4C0CBCEB410F04D8B6
:102660000C0D661E342EB7DDEBE7801A994150EA57
:10267000410608BF0021E4E708BF1CEB430F28BF59
:102680006FF00001DDE70000841A71EB030603D24E
:10269000001BB141121973414FF4001C1CEB410F98
:1026A00034BF7CEB430442E00C0DA4EB1356352EF3
:1026B0004FDC45EAC323DB0A45EAC121C912B6F162
:1026C00020050DDD63FA05F6EB4086EA03051242AC
:1026D00018BF45F00105C01851F100010CD213E0FC
:1026E00062FA06F5F2405540F3415A40B340F340D8
:1026F0005A408018594107D349085FEA30005FEA21
:10270000350528BF45F0010501F58011420875F136
:10271000004250F1000041EB04514E0016F5001F3D
:1027200070BC38BF70470020090D090570471CEBCD
:10273000410F10D252EA43060BD0BCEB410F05D833
:102740000C0DAB43661E342EB6DD02E0AB438018A1
:10275000594170BC704770BC70470000C1F30A5308
:1027600040F21E42D31A0CDDCA0283F3070342EA89
:10277000505242F00042DA4002EBE17282EAE1702C
:1027800070476FEAE17203F2E13008B182F0004075
:10279000704770477047704770477047FEE7FEE725
:1027A000FEE7FEE7FEE770477047704780B500F030
:1027B00015F801BD80B50648FEF70EFD01BD80B5D8
:1027C0000448FEF787F90448FFF7C0FD01BD00008B
:1027D000A40200205C020020E802002003490A68ED
:1027E0000348007882180A60704700BFFC0200208E
:1027F0001200002030B4002512E050F8042BD3075B
:1028000044BF4A44521E091F042942F8045BFAD20D
:1028100013468C0744BF15809B1CC90748BF1D7019
:1028200050F8041B0029E8D130BC704710B5446A49
:10283000200000F014F80120207110BD80B5406A1E
:1028400000F00EF801BD10B5446A206950F0040094
:102850002061200000F005F80120207110BD7047B4
:102860007047704710B5074979441831064C7C44CD
:10287000163404E00A68081D114488470146A14245
:10288000F8D110BD080000002800000069FFFFFF1C
:10289000F0020000140000200000000087E4FFFFA9
:1028A0001400000070000000000000200000000084
:1028B00000F00DF8002801D0FFF7D4FFAFF300803F
:1028C0000020AFF30080FEF795FD00F002F8012034
:1028D000704700F001B800000746384600F002F8E3
:1028E000FBE7000080B5AFF30080024A110018201A
:1028F000ABBEFBE7260002000548014603B468466C
:1029000080F30988AFF30080AFF30080FFF7D0FFBA
:10291000A5EDF5FE000200003333733F1000000008
:102920000024F40000020100020304050607080960
:102930000A0B0C0D0E0F1010010203040506070808
:10294000090A0B0C0D0E0F10000000000000000023
:1029500001020304060708090148804701480047AF
:10296000052A0008F9280008FFF7FEBFFFF7FEBFA1
:10297000FFF7FEBFFFF7FEBFFFF7FEBFFFF7FEBF8B
:10298000FFF7FEBFFFF7FEBFFFF7FEBFFFF7FEBF7B
:10299000FFF7FEBFFFF7FEBFFFF7FEBFFFF7FEBF6B
:1029A000FFF7FEBFFFF7FEBFFFF7FEBFFFF7FEBF5B
:1029B000FFF7FEBFFFF7FEBFFFF7FEBFFFF7FEBF4B
:1029C000FFF7FEBFFFF7FEBFFFF7FEBFFFF7FEBF3B
:1029D000FFF7FEBFFFF7FEBFFFF7FEBFFFF7FEBF2B
:1029E000FFF7FEBFFFF7FEBFFFF7FEBFFFF7FEBF1B
:1029F000FFF7FEBFFFF7FEBFFFF7FEBFFFF7FEBF0B
:062A0000FFF7FEBF704766
:04000005080028F9CE
:00000001FF
